{
  "_format": "hh-sol-artifact-1",
  "contractName": "TokenizedBallot",
  "sourceName": "contracts/TokenizedBallot.sol",
  "abi": [
    {
      "inputs": [
        {
          "internalType": "bytes32[]",
          "name": "_proposalNames",
          "type": "bytes32[]"
        },
        {
          "internalType": "address",
          "name": "_tokenContract",
          "type": "address"
        },
        {
          "internalType": "uint256",
          "name": "_targetBlockNumber",
          "type": "uint256"
        }
      ],
      "stateMutability": "nonpayable",
      "type": "constructor"
    },
    {
      "inputs": [],
      "name": "getAllProposals",
      "outputs": [
        {
          "components": [
            {
              "internalType": "bytes32",
              "name": "name",
              "type": "bytes32"
            },
            {
              "internalType": "uint256",
              "name": "voteCount",
              "type": "uint256"
            }
          ],
          "internalType": "struct TokenizedBallot.Proposal[]",
          "name": "",
          "type": "tuple[]"
        }
      ],
      "stateMutability": "view",
      "type": "function"
    },
    {
      "inputs": [
        {
          "internalType": "address",
          "name": "",
          "type": "address"
        },
        {
          "internalType": "uint256",
          "name": "",
          "type": "uint256"
        }
      ],
      "name": "hasVoted",
      "outputs": [
        {
          "internalType": "bool",
          "name": "",
          "type": "bool"
        }
      ],
      "stateMutability": "view",
      "type": "function"
    },
    {
      "inputs": [
        {
          "internalType": "uint256",
          "name": "",
          "type": "uint256"
        }
      ],
      "name": "proposals",
      "outputs": [
        {
          "internalType": "bytes32",
          "name": "name",
          "type": "bytes32"
        },
        {
          "internalType": "uint256",
          "name": "voteCount",
          "type": "uint256"
        }
      ],
      "stateMutability": "view",
      "type": "function"
    },
    {
      "inputs": [],
      "name": "targetBlockNumber",
      "outputs": [
        {
          "internalType": "uint256",
          "name": "",
          "type": "uint256"
        }
      ],
      "stateMutability": "view",
      "type": "function"
    },
    {
      "inputs": [],
      "name": "tokenContract",
      "outputs": [
        {
          "internalType": "contract IMyToken",
          "name": "",
          "type": "address"
        }
      ],
      "stateMutability": "view",
      "type": "function"
    },
    {
      "inputs": [
        {
          "internalType": "uint256",
          "name": "proposal",
          "type": "uint256"
        },
        {
          "internalType": "uint256",
          "name": "amount",
          "type": "uint256"
        }
      ],
      "name": "vote",
      "outputs": [],
      "stateMutability": "nonpayable",
      "type": "function"
    },
    {
      "inputs": [],
      "name": "winnerName",
      "outputs": [
        {
          "internalType": "bytes32",
          "name": "winnerName_",
          "type": "bytes32"
        }
      ],
      "stateMutability": "view",
      "type": "function"
    },
    {
      "inputs": [],
      "name": "winningProposal",
      "outputs": [
        {
          "internalType": "uint256",
          "name": "winningProposal_",
          "type": "uint256"
        }
      ],
      "stateMutability": "view",
      "type": "function"
    }
  ],
  "bytecode": "0x60a06040523480156200001157600080fd5b50604051620010b6380380620010b68339818101604052810190620000379190620003c1565b816000806101000a81548173ffffffffffffffffffffffffffffffffffffffff021916908373ffffffffffffffffffffffffffffffffffffffff1602179055508060808181525050438110620000c4576040517f08c379a0000000000000000000000000000000000000000000000000000000008152600401620000bb90620004c3565b60405180910390fd5b60005b8351811015620001535760016040518060400160405280868481518110620000f457620000f3620004e5565b5b6020026020010151815260200160008152509080600181540180825580915050600190039060005260206000209060020201600090919091909150600082015181600001556020820151816001015550508080600101915050620000c7565b5050505062000514565b6000604051905090565b600080fd5b600080fd5b600080fd5b6000601f19601f8301169050919050565b7f4e487b7100000000000000000000000000000000000000000000000000000000600052604160045260246000fd5b620001c18262000176565b810181811067ffffffffffffffff82111715620001e357620001e262000187565b5b80604052505050565b6000620001f86200015d565b9050620002068282620001b6565b919050565b600067ffffffffffffffff82111562000229576200022862000187565b5b602082029050602081019050919050565b600080fd5b6000819050919050565b62000254816200023f565b81146200026057600080fd5b50565b600081519050620002748162000249565b92915050565b6000620002916200028b846200020b565b620001ec565b90508083825260208201905060208402830185811115620002b757620002b66200023a565b5b835b81811015620002e45780620002cf888262000263565b845260208401935050602081019050620002b9565b5050509392505050565b600082601f83011262000306576200030562000171565b5b8151620003188482602086016200027a565b91505092915050565b600073ffffffffffffffffffffffffffffffffffffffff82169050919050565b60006200034e8262000321565b9050919050565b620003608162000341565b81146200036c57600080fd5b50565b600081519050620003808162000355565b92915050565b6000819050919050565b6200039b8162000386565b8114620003a757600080fd5b50565b600081519050620003bb8162000390565b92915050565b600080600060608486031215620003dd57620003dc62000167565b5b600084015167ffffffffffffffff811115620003fe57620003fd6200016c565b5b6200040c86828701620002ee565b93505060206200041f868287016200036f565b92505060406200043286828701620003aa565b9150509250925092565b600082825260208201905092915050565b7f54617267657420626c6f636b206e756d626572206d75737420626520696e207460008201527f6865207061737400000000000000000000000000000000000000000000000000602082015250565b6000620004ab6027836200043c565b9150620004b8826200044d565b604082019050919050565b60006020820190508181036000830152620004de816200049c565b9050919050565b7f4e487b7100000000000000000000000000000000000000000000000000000000600052603260045260246000fd5b608051610b7f62000537600039600081816101d601526103ab0152610b7f6000f3fe608060405234801561001057600080fd5b50600436106100885760003560e01c8063609ff1bd1161005b578063609ff1bd1461012a578063b384abef14610148578063cceb68f514610164578063e2ba53f01461018257610088565b8063013cf08b1461008d5780632a8cd29e146100be57806342545825146100dc57806355a373d61461010c575b600080fd5b6100a760048036038101906100a291906105f4565b6101a0565b6040516100b5929190610649565b60405180910390f35b6100c66101d4565b6040516100d39190610672565b60405180910390f35b6100f660048036038101906100f191906106eb565b6101f8565b6040516101039190610746565b60405180910390f35b610114610227565b60405161012191906107c0565b60405180910390f35b61013261024b565b60405161013f9190610672565b60405180910390f35b610162600480360381019061015d91906107db565b6102cd565b005b61016c610512565b6040516101799190610917565b60405180910390f35b61018a610585565b6040516101979190610939565b60405180910390f35b600181815481106101b057600080fd5b90600052602060002090600202016000915090508060000154908060010154905082565b7f000000000000000000000000000000000000000000000000000000000000000081565b60026020528160005260406000206020528060005260406000206000915091509054906101000a900460ff1681565b60008054906101000a900473ffffffffffffffffffffffffffffffffffffffff1681565b6000806000905060005b6001805490508110156102c857816001828154811061027757610276610954565b5b90600052602060002090600202016001015411156102bb57600181815481106102a3576102a2610954565b5b90600052602060002090600202016001015491508092505b8080600101915050610255565b505090565b600260003373ffffffffffffffffffffffffffffffffffffffff1673ffffffffffffffffffffffffffffffffffffffff168152602001908152602001600020600083815260200190815260200160002060009054906101000a900460ff161561036b576040517f08c379a0000000000000000000000000000000000000000000000000000000008152600401610362906109e0565b60405180910390fd5b8060008054906101000a900473ffffffffffffffffffffffffffffffffffffffff1673ffffffffffffffffffffffffffffffffffffffff16633a46b1a8337f00000000000000000000000000000000000000000000000000000000000000006040518363ffffffff1660e01b81526004016103e7929190610a0f565b602060405180830381865afa158015610404573d6000803e3d6000fd5b505050506040513d601f19601f820116820180604052508101906104289190610a4d565b1015610469576040517f08c379a000000000000000000000000000000000000000000000000000000000815260040161046090610ac6565b60405180910390fd5b6001600260003373ffffffffffffffffffffffffffffffffffffffff1673ffffffffffffffffffffffffffffffffffffffff168152602001908152602001600020600084815260200190815260200160002060006101000a81548160ff02191690831515021790555080600183815481106104e7576104e6610954565b5b906000526020600020906002020160010160008282546105079190610b15565b925050819055505050565b60606001805480602002602001604051908101604052809291908181526020016000905b8282101561057c57838290600052602060002090600202016040518060400160405290816000820154815260200160018201548152505081526020019060010190610536565b50505050905090565b6000600161059161024b565b815481106105a2576105a1610954565b5b906000526020600020906002020160000154905090565b600080fd5b6000819050919050565b6105d1816105be565b81146105dc57600080fd5b50565b6000813590506105ee816105c8565b92915050565b60006020828403121561060a576106096105b9565b5b6000610618848285016105df565b91505092915050565b6000819050919050565b61063481610621565b82525050565b610643816105be565b82525050565b600060408201905061065e600083018561062b565b61066b602083018461063a565b9392505050565b6000602082019050610687600083018461063a565b92915050565b600073ffffffffffffffffffffffffffffffffffffffff82169050919050565b60006106b88261068d565b9050919050565b6106c8816106ad565b81146106d357600080fd5b50565b6000813590506106e5816106bf565b92915050565b60008060408385031215610702576107016105b9565b5b6000610710858286016106d6565b9250506020610721858286016105df565b9150509250929050565b60008115159050919050565b6107408161072b565b82525050565b600060208201905061075b6000830184610737565b92915050565b6000819050919050565b600061078661078161077c8461068d565b610761565b61068d565b9050919050565b60006107988261076b565b9050919050565b60006107aa8261078d565b9050919050565b6107ba8161079f565b82525050565b60006020820190506107d560008301846107b1565b92915050565b600080604083850312156107f2576107f16105b9565b5b6000610800858286016105df565b9250506020610811858286016105df565b9150509250929050565b600081519050919050565b600082825260208201905092915050565b6000819050602082019050919050565b61085081610621565b82525050565b61085f816105be565b82525050565b60408201600082015161087b6000850182610847565b50602082015161088e6020850182610856565b50505050565b60006108a08383610865565b60408301905092915050565b6000602082019050919050565b60006108c48261081b565b6108ce8185610826565b93506108d983610837565b8060005b8381101561090a5781516108f18882610894565b97506108fc836108ac565b9250506001810190506108dd565b5085935050505092915050565b6000602082019050818103600083015261093181846108b9565b905092915050565b600060208201905061094e600083018461062b565b92915050565b7f4e487b7100000000000000000000000000000000000000000000000000000000600052603260045260246000fd5b600082825260208201905092915050565b7f416c726561647920766f746564206f6e20746869732070726f706f73616c0000600082015250565b60006109ca601e83610983565b91506109d582610994565b602082019050919050565b600060208201905081810360008301526109f9816109bd565b9050919050565b610a09816106ad565b82525050565b6000604082019050610a246000830185610a00565b610a31602083018461063a565b9392505050565b600081519050610a47816105c8565b92915050565b600060208284031215610a6357610a626105b9565b5b6000610a7184828501610a38565b91505092915050565b7f4e6f7420656e6f75676820766f74696e6720706f776572000000000000000000600082015250565b6000610ab0601783610983565b9150610abb82610a7a565b602082019050919050565b60006020820190508181036000830152610adf81610aa3565b9050919050565b7f4e487b7100000000000000000000000000000000000000000000000000000000600052601160045260246000fd5b6000610b20826105be565b9150610b2b836105be565b9250828201905080821115610b4357610b42610ae6565b5b9291505056fea26469706673582212205693a2652561c0463a2d91e4ca09cf5a27eddd8c1d1208b3a38aa6ad3378df6964736f6c63430008180033",
  "linkReferences": {},
  "deployedLinkReferences": {}
}